{"abi":[{"type":"constructor","inputs":[{"name":"_registryCoordinator","type":"address","internalType":"contract IRegistryCoordinator"}],"stateMutability":"nonpayable"},{"type":"function","name":"blsApkRegistry","inputs":[],"outputs":[{"name":"","type":"address","internalType":"contract IBLSApkRegistry"}],"stateMutability":"view"},{"type":"function","name":"checkSignatures","inputs":[{"name":"msgHash","type":"bytes32","internalType":"bytes32"},{"name":"quorumNumbers","type":"bytes","internalType":"bytes"},{"name":"referenceBlockNumber","type":"uint32","internalType":"uint32"},{"name":"params","type":"tuple","internalType":"struct IBLSSignatureChecker.NonSignerStakesAndSignature","components":[{"name":"nonSignerQuorumBitmapIndices","type":"uint32[]","internalType":"uint32[]"},{"name":"nonSignerPubkeys","type":"tuple[]","internalType":"struct BN254.G1Point[]","components":[{"name":"X","type":"uint256","internalType":"uint256"},{"name":"Y","type":"uint256","internalType":"uint256"}]},{"name":"quorumApks","type":"tuple[]","internalType":"struct BN254.G1Point[]","components":[{"name":"X","type":"uint256","internalType":"uint256"},{"name":"Y","type":"uint256","internalType":"uint256"}]},{"name":"apkG2","type":"tuple","internalType":"struct BN254.G2Point","components":[{"name":"X","type":"uint256[2]","internalType":"uint256[2]"},{"name":"Y","type":"uint256[2]","internalType":"uint256[2]"}]},{"name":"sigma","type":"tuple","internalType":"struct BN254.G1Point","components":[{"name":"X","type":"uint256","internalType":"uint256"},{"name":"Y","type":"uint256","internalType":"uint256"}]},{"name":"quorumApkIndices","type":"uint32[]","internalType":"uint32[]"},{"name":"totalStakeIndices","type":"uint32[]","internalType":"uint32[]"},{"name":"nonSignerStakeIndices","type":"uint32[][]","internalType":"uint32[][]"}]}],"outputs":[{"name":"","type":"tuple","internalType":"struct IBLSSignatureChecker.QuorumStakeTotals","components":[{"name":"signedStakeForQuorum","type":"uint96[]","internalType":"uint96[]"},{"name":"totalStakeForQuorum","type":"uint96[]","internalType":"uint96[]"}]},{"name":"","type":"bytes32","internalType":"bytes32"}],"stateMutability":"view"},{"type":"function","name":"delegation","inputs":[],"outputs":[{"name":"","type":"address","internalType":"contract IDelegationManager"}],"stateMutability":"view"},{"type":"function","name":"registryCoordinator","inputs":[],"outputs":[{"name":"","type":"address","internalType":"contract IRegistryCoordinator"}],"stateMutability":"view"},{"type":"function","name":"setStaleStakesForbidden","inputs":[{"name":"value","type":"bool","internalType":"bool"}],"outputs":[],"stateMutability":"nonpayable"},{"type":"function","name":"stakeRegistry","inputs":[],"outputs":[{"name":"","type":"address","internalType":"contract IStakeRegistry"}],"stateMutability":"view"},{"type":"function","name":"staleStakesForbidden","inputs":[],"outputs":[{"name":"","type":"bool","internalType":"bool"}],"stateMutability":"view"},{"type":"function","name":"trySignatureAndApkVerification","inputs":[{"name":"msgHash","type":"bytes32","internalType":"bytes32"},{"name":"apk","type":"tuple","internalType":"struct BN254.G1Point","components":[{"name":"X","type":"uint256","internalType":"uint256"},{"name":"Y","type":"uint256","internalType":"uint256"}]},{"name":"apkG2","type":"tuple","internalType":"struct BN254.G2Point","components":[{"name":"X","type":"uint256[2]","internalType":"uint256[2]"},{"name":"Y","type":"uint256[2]","internalType":"uint256[2]"}]},{"name":"sigma","type":"tuple","internalType":"struct BN254.G1Point","components":[{"name":"X","type":"uint256","internalType":"uint256"},{"name":"Y","type":"uint256","internalType":"uint256"}]}],"outputs":[{"name":"pairingSuccessful","type":"bool","internalType":"bool"},{"name":"siganatureIsValid","type":"bool","internalType":"bool"}],"stateMutability":"view"},{"type":"event","name":"StaleStakesForbiddenUpdate","inputs":[{"name":"value","type":"bool","indexed":false,"internalType":"bool"}],"anonymous":false}],"bytecode":{"object":"0x6101006040523480156200001257600080fd5b506040516200290e3803806200290e8339810160408190526200003591620001d0565b6001600160a01b038116608081905260408051636830483560e01b815290516368304835916004808201926020929091908290030181865afa15801562000080573d6000803e3d6000fd5b505050506040513d601f19601f82011682018060405250810190620000a69190620001d0565b6001600160a01b031660a0816001600160a01b031681525050806001600160a01b0316635df459466040518163ffffffff1660e01b8152600401602060405180830381865afa158015620000fe573d6000803e3d6000fd5b505050506040513d601f19601f82011682018060405250810190620001249190620001d0565b6001600160a01b031660c0816001600160a01b03168152505060a0516001600160a01b031663df5cf7236040518163ffffffff1660e01b8152600401602060405180830381865afa1580156200017e573d6000803e3d6000fd5b505050506040513d601f19601f82011682018060405250810190620001a49190620001d0565b6001600160a01b031660e05250620001f7565b6001600160a01b0381168114620001cd57600080fd5b50565b600060208284031215620001e357600080fd5b8151620001f081620001b7565b9392505050565b60805160a05160c05160e0516126a662000268600039600081816101a10152610b7c01526000818160d60152610d5e01526000818161011501528181610f3501526110f701526000818161013c0152818161034f01528181610845015281816109dd0152610c1901526126a66000f3fe608060405234801561001057600080fd5b50600436106100885760003560e01c80636d14a9871161005b5780636d14a987146101375780636efb46361461015e578063b98d09081461017f578063df5cf7231461019c57600080fd5b8063171f1d5b1461008d578063416c7e5e146100bc5780635df45946146100d15780636830483514610110575b600080fd5b6100a061009b366004611fb1565b6101c3565b6040805192151583529015156020830152015b60405180910390f35b6100cf6100ca366004612002565b61034d565b005b6100f87f000000000000000000000000000000000000000000000000000000000000000081565b6040516001600160a01b0390911681526020016100b3565b6100f87f000000000000000000000000000000000000000000000000000000000000000081565b6100f87f000000000000000000000000000000000000000000000000000000000000000081565b61017161016c3660046122dd565b61048c565b6040516100b39291906123d1565b60005461018c9060ff1681565b60405190151581526020016100b3565b6100f87f000000000000000000000000000000000000000000000000000000000000000081565b60008060007f30644e72e131a029b85045b68181585d2833e84879b9709143e1f593f00000018787600001518860200151886000015160006002811061020b5761020b61241a565b60200201518951600160200201518a602001516000600281106102305761023061241a565b60200201518b6020015160016002811061024c5761024c61241a565b602090810291909101518c518d8301516040516102a99a99989796959401988952602089019790975260408801959095526060870193909352608086019190915260a085015260c084015260e08301526101008201526101200190565b6040516020818303038152906040528051906020012060001c6102cc9190612430565b905061033f6102e56102de88846113ac565b869061143d565b6102ed6114d2565b61033561032685610320604080518082018252600080825260209182015281518083019092526001825260029082015290565b906113ac565b61032f8c611592565b9061143d565b886201d4c0611621565b909890975095505050505050565b7f00000000000000000000000000000000000000000000000000000000000000006001600160a01b0316638da5cb5b6040518163ffffffff1660e01b8152600401602060405180830381865afa1580156103ab573d6000803e3d6000fd5b505050506040513d601f19601f820116820180604052508101906103cf9190612452565b6001600160a01b0316336001600160a01b0316146104805760405162461bcd60e51b815260206004820152605c60248201527f424c535369676e6174757265436865636b65722e6f6e6c79436f6f7264696e6160448201527f746f724f776e65723a2063616c6c6572206973206e6f7420746865206f776e6560648201527f72206f6620746865207265676973747279436f6f7264696e61746f7200000000608482015260a4015b60405180910390fd5b61048981611845565b50565b604080518082019091526060808252602082015260008481036105055760405162461bcd60e51b8152602060048201526037602482015260008051602061265183398151915260448201527f7265733a20656d7074792071756f72756d20696e7075740000000000000000006064820152608401610477565b6040830151518514801561051d575060a08301515185145b801561052d575060c08301515185145b801561053d575060e08301515185145b6105a75760405162461bcd60e51b8152602060048201526041602482015260008051602061265183398151915260448201527f7265733a20696e7075742071756f72756d206c656e677468206d69736d6174636064820152600d60fb1b608482015260a401610477565b8251516020840151511461061f5760405162461bcd60e51b815260206004820152604460248201819052600080516020612651833981519152908201527f7265733a20696e707574206e6f6e7369676e6572206c656e677468206d69736d6064820152630c2e8c6d60e31b608482015260a401610477565b4363ffffffff168463ffffffff161061068e5760405162461bcd60e51b815260206004820152603c602482015260008051602061265183398151915260448201527f7265733a20696e76616c6964207265666572656e636520626c6f636b000000006064820152608401610477565b60408051808201825260008082526020808301919091528251808401909352606080845290830152908667ffffffffffffffff8111156106d0576106d0611e5d565b6040519080825280602002602001820160405280156106f9578160200160208202803683370190505b5060208201528667ffffffffffffffff81111561071857610718611e5d565b604051908082528060200260200182016040528015610741578160200160208202803683370190505b508152604080518082019091526060808252602082015285602001515167ffffffffffffffff81111561077657610776611e5d565b60405190808252806020026020018201604052801561079f578160200160208202803683370190505b50815260208601515167ffffffffffffffff8111156107c0576107c0611e5d565b6040519080825280602002602001820160405280156107e9578160200160208202803683370190505b50816020018190525060006108bb8a8a8080601f0160208091040260200160405190810160405280939291908181526020018383808284376000920191909152505060408051639aa1653d60e01b815290516001600160a01b037f0000000000000000000000000000000000000000000000000000000000000000169350639aa1653d925060048083019260209291908290030181865afa158015610892573d6000803e3d6000fd5b505050506040513d601f19601f820116820180604052508101906108b6919061247b565b61188c565b905060005b876020015151811015610b5657610905886020015182815181106108e6576108e661241a565b6020026020010151805160009081526020918201519091526040902090565b8360200151828151811061091b5761091b61241a565b602090810291909101015280156109db57602083015161093c6001836124b4565b8151811061094c5761094c61241a565b602002602001015160001c8360200151828151811061096d5761096d61241a565b602002602001015160001c116109db576040805162461bcd60e51b815260206004820152602481019190915260008051602061265183398151915260448201527f7265733a206e6f6e5369676e65725075626b657973206e6f7420736f727465646064820152608401610477565b7f00000000000000000000000000000000000000000000000000000000000000006001600160a01b03166304ec635184602001518381518110610a2057610a2061241a565b60200260200101518b8b600001518581518110610a3f57610a3f61241a565b60200260200101516040518463ffffffff1660e01b8152600401610a7c9392919092835263ffffffff918216602084015216604082015260600190565b602060405180830381865afa158015610a99573d6000803e3d6000fd5b505050506040513d601f19601f82011682018060405250810190610abd91906124c7565b6001600160c01b031683600001518281518110610adc57610adc61241a565b602002602001018181525050610b426102de610b168486600001518581518110610b0857610b0861241a565b60200260200101511661191f565b8a602001518481518110610b2c57610b2c61241a565b602002602001015161194a90919063ffffffff16565b945080610b4e816124f0565b9150506108c0565b5050610b6183611a2d565b6000805491945060ff9091169081610b7a576000610bfc565b7f00000000000000000000000000000000000000000000000000000000000000006001600160a01b031663c448feb86040518163ffffffff1660e01b8152600401602060405180830381865afa158015610bd8573d6000803e3d6000fd5b505050506040513d601f19601f82011682018060405250810190610bfc9190612509565b905060005b8a81101561127b578215610d5c578963ffffffff16827f00000000000000000000000000000000000000000000000000000000000000006001600160a01b031663249a0c428f8f86818110610c5857610c5861241a565b60405160e085901b6001600160e01b031916815292013560f81c600483015250602401602060405180830381865afa158015610c98573d6000803e3d6000fd5b505050506040513d601f19601f82011682018060405250810190610cbc9190612509565b610cc69190612522565b11610d5c5760405162461bcd60e51b8152602060048201526066602482015260008051602061265183398151915260448201527f7265733a205374616b6552656769737472792075706461746573206d7573742060648201527f62652077697468696e207769746864726177616c44656c6179426c6f636b732060848201526577696e646f7760d01b60a482015260c401610477565b7f00000000000000000000000000000000000000000000000000000000000000006001600160a01b03166368bccaac8d8d84818110610d9d57610d9d61241a565b9050013560f81c60f81b60f81c8c8c60a001518581518110610dc157610dc161241a565b60209081029190910101516040516001600160e01b031960e086901b16815260ff909316600484015263ffffffff9182166024840152166044820152606401602060405180830381865afa158015610e1d573d6000803e3d6000fd5b505050506040513d601f19601f82011682018060405250810190610e419190612535565b67ffffffffffffffff1916610e658a6040015183815181106108e6576108e661241a565b67ffffffffffffffff191614610f015760405162461bcd60e51b8152602060048201526061602482015260008051602061265183398151915260448201527f7265733a2071756f72756d41706b206861736820696e2073746f72616765206460648201527f6f6573206e6f74206d617463682070726f76696465642071756f72756d2061706084820152606b60f81b60a482015260c401610477565b610f3189604001518281518110610f1a57610f1a61241a565b60200260200101518761143d90919063ffffffff16565b95507f00000000000000000000000000000000000000000000000000000000000000006001600160a01b031663c8294c568d8d84818110610f7457610f7461241a565b9050013560f81c60f81b60f81c8c8c60c001518581518110610f9857610f9861241a565b60209081029190910101516040516001600160e01b031960e086901b16815260ff909316600484015263ffffffff9182166024840152166044820152606401602060405180830381865afa158015610ff4573d6000803e3d6000fd5b505050506040513d601f19601f820116820180604052508101906110189190612560565b8560200151828151811061102e5761102e61241a565b6001600160601b0390921660209283029190910182015285015180518290811061105a5761105a61241a565b6020026020010151856000015182815181106110785761107861241a565b60200260200101906001600160601b031690816001600160601b0316815250506000805b8a6020015151811015611266576110f0866000015182815181106110c2576110c261241a565b60200260200101518f8f868181106110dc576110dc61241a565b600192013560f81c9290921c811614919050565b15611254577f00000000000000000000000000000000000000000000000000000000000000006001600160a01b031663f2be94ae8f8f868181106111365761113661241a565b9050013560f81c60f81b60f81c8e8960200151858151811061115a5761115a61241a565b60200260200101518f60e0015188815181106111785761117861241a565b602002602001015187815181106111915761119161241a565b60209081029190910101516040516001600160e01b031960e087901b16815260ff909416600485015263ffffffff92831660248501526044840191909152166064820152608401602060405180830381865afa1580156111f5573d6000803e3d6000fd5b505050506040513d601f19601f820116820180604052508101906112199190612560565b875180518590811061122d5761122d61241a565b602002602001018181516112419190612589565b6001600160601b03169052506001909101905b8061125e816124f0565b91505061109c565b50508080611273906124f0565b915050610c01565b5050506000806112958c868a606001518b608001516101c3565b91509150816113065760405162461bcd60e51b8152602060048201526043602482015260008051602061265183398151915260448201527f7265733a2070616972696e6720707265636f6d70696c652063616c6c206661696064820152621b195960ea1b608482015260a401610477565b806113675760405162461bcd60e51b8152602060048201526039602482015260008051602061265183398151915260448201527f7265733a207369676e617475726520697320696e76616c6964000000000000006064820152608401610477565b505060008782602001516040516020016113829291906125b0565b60408051808303601f190181529190528051602090910120929b929a509198505050505050505050565b60408051808201909152600080825260208201526113c8611d83565b835181526020808501519082015260408082018490526000908360608460076107d05a03fa905080806113f757fe5b50806114355760405162461bcd60e51b815260206004820152600d60248201526c1958cb5b5d5b0b59985a5b1959609a1b6044820152606401610477565b505092915050565b6040805180820190915260008082526020820152611459611da1565b835181526020808501518183015283516040808401919091529084015160608301526000908360808460066107d05a03fa9050808061149457fe5b50806114355760405162461bcd60e51b815260206004820152600d60248201526c1958cb5859190b59985a5b1959609a1b6044820152606401610477565b6114da611dbf565b50604080516080810182527f198e9393920d483a7260bfb731fb5d25f1aa493335a9e71297e485b7aef312c28183019081527f1800deef121f1e76426a00665e5c4479674322d4f75edadd46debd5cd992f6ed6060830152815281518083019092527f275dc4a288d1afb3cbb1ac09187524c7db36395df7be3b99e673b13a075a65ec82527f1d9befcd05a5323e6da4d435f3b617cdb3af83285c2df711ef39c01571827f9d60208381019190915281019190915290565b6040805180820190915260008082526020820152600080806115c260008051602061263183398151915286612430565b90505b6115ce81611ac8565b90935091506000805160206126318339815191528283098303611607576040805180820190915290815260208101919091529392505050565b6000805160206126318339815191526001820890506115c5565b604080518082018252868152602080820186905282518084019093528683528201849052600091829190611653611de4565b60005b600281101561181857600061166c8260066125f8565b90508482600281106116805761168061241a565b60200201515183611692836000612522565b600c81106116a2576116a261241a565b60200201528482600281106116b9576116b961241a565b602002015160200151838260016116d09190612522565b600c81106116e0576116e061241a565b60200201528382600281106116f7576116f761241a565b602002015151518361170a836002612522565b600c811061171a5761171a61241a565b60200201528382600281106117315761173161241a565b602002015151600160200201518361174a836003612522565b600c811061175a5761175a61241a565b60200201528382600281106117715761177161241a565b60200201516020015160006002811061178c5761178c61241a565b60200201518361179d836004612522565b600c81106117ad576117ad61241a565b60200201528382600281106117c4576117c461241a565b6020020151602001516001600281106117df576117df61241a565b6020020151836117f0836005612522565b600c81106118005761180061241a565b60200201525080611810816124f0565b915050611656565b50611821611e03565b60006020826101808560088cfa9151919c9115159b50909950505050505050505050565b6000805460ff19168215159081179091556040519081527f40e4ed880a29e0f6ddce307457fb75cddf4feef7d3ecb0301bfdf4976a0e2dfc9060200160405180910390a150565b60008061189884611b4a565b9050808360ff166001901b116119165760405162461bcd60e51b815260206004820152603f60248201527f4269746d61705574696c732e6f72646572656442797465734172726179546f4260448201527f69746d61703a206269746d61702065786365656473206d61782076616c7565006064820152608401610477565b90505b92915050565b6000805b8215611919576119346001846124b4565b90921691806119428161260f565b915050611923565b60408051808201909152600080825260208201526102008261ffff16106119a65760405162461bcd60e51b815260206004820152601060248201526f7363616c61722d746f6f2d6c6172676560801b6044820152606401610477565b8161ffff166001036119b9575081611919565b6040805180820190915260008082526020820181905284906001905b8161ffff168661ffff1610611a2257600161ffff871660ff83161c81169003611a0557611a02848461143d565b93505b611a0f838461143d565b92506201fffe600192831b1691016119d5565b509195945050505050565b60408051808201909152600080825260208201528151158015611a5257506020820151155b15611a70575050604080518082019091526000808252602082015290565b6040518060400160405280836000015181526020016000805160206126318339815191528460200151611aa39190612430565b611abb906000805160206126318339815191526124b4565b905292915050565b919050565b60008080600080516020612631833981519152600360008051602061263183398151915286600080516020612631833981519152888909090890506000611b3e827f0c19139cb84c680a6e14116da060561765e05aa45a1c72a34f082305b61f3f52600080516020612631833981519152611cda565b91959194509092505050565b600061010082511115611bd35760405162461bcd60e51b8152602060048201526044602482018190527f4269746d61705574696c732e6f72646572656442797465734172726179546f42908201527f69746d61703a206f7264657265644279746573417272617920697320746f6f206064820152636c6f6e6760e01b608482015260a401610477565b8151600003611be457506000919050565b60008083600081518110611bfa57611bfa61241a565b0160200151600160f89190911c81901b92505b8451811015611cd157848181518110611c2857611c2861241a565b0160200151600160f89190911c1b9150828211611cbd5760405162461bcd60e51b815260206004820152604760248201527f4269746d61705574696c732e6f72646572656442797465734172726179546f4260448201527f69746d61703a206f72646572656442797465734172726179206973206e6f74206064820152661bdc99195c995960ca1b608482015260a401610477565b91811791611cca816124f0565b9050611c0d565b50909392505050565b600080611ce5611e03565b611ced611e21565b602080825281810181905260408201819052606082018890526080820187905260a082018690528260c08360056107d05a03fa92508280611d2a57fe5b5082611d785760405162461bcd60e51b815260206004820152601a60248201527f424e3235342e6578704d6f643a2063616c6c206661696c7572650000000000006044820152606401610477565b505195945050505050565b60405180606001604052806003906020820280368337509192915050565b60405180608001604052806004906020820280368337509192915050565b6040518060400160405280611dd2611e3f565b8152602001611ddf611e3f565b905290565b604051806101800160405280600c906020820280368337509192915050565b60405180602001604052806001906020820280368337509192915050565b6040518060c001604052806006906020820280368337509192915050565b60405180604001604052806002906020820280368337509192915050565b634e487b7160e01b600052604160045260246000fd5b6040805190810167ffffffffffffffff81118282101715611e9657611e96611e5d565b60405290565b604051610100810167ffffffffffffffff81118282101715611e9657611e96611e5d565b604051601f8201601f1916810167ffffffffffffffff81118282101715611ee957611ee9611e5d565b604052919050565b600060408284031215611f0357600080fd5b611f0b611e73565b9050813581526020820135602082015292915050565b600082601f830112611f3257600080fd5b611f3a611e73565b806040840185811115611f4c57600080fd5b845b81811015611f66578035845260209384019301611f4e565b509095945050505050565b600060808284031215611f8357600080fd5b611f8b611e73565b9050611f978383611f21565b8152611fa68360408401611f21565b602082015292915050565b6000806000806101208587031215611fc857600080fd5b84359350611fd98660208701611ef1565b9250611fe88660608701611f71565b9150611ff78660e08701611ef1565b905092959194509250565b60006020828403121561201457600080fd5b8135801515811461191657600080fd5b803563ffffffff81168114611ac357600080fd5b600067ffffffffffffffff82111561205257612052611e5d565b5060051b60200190565b600082601f83011261206d57600080fd5b8135602061208261207d83612038565b611ec0565b82815260059290921b840181019181810190868411156120a157600080fd5b8286015b848110156120c3576120b681612024565b83529183019183016120a5565b509695505050505050565b600082601f8301126120df57600080fd5b813560206120ef61207d83612038565b82815260069290921b8401810191818101908684111561210e57600080fd5b8286015b848110156120c3576121248882611ef1565b835291830191604001612112565b600082601f83011261214357600080fd5b8135602061215361207d83612038565b82815260059290921b8401810191818101908684111561217257600080fd5b8286015b848110156120c357803567ffffffffffffffff8111156121965760008081fd5b6121a48986838b010161205c565b845250918301918301612176565b600061018082840312156121c557600080fd5b6121cd611e9c565b9050813567ffffffffffffffff808211156121e757600080fd5b6121f38583860161205c565b8352602084013591508082111561220957600080fd5b612215858386016120ce565b6020840152604084013591508082111561222e57600080fd5b61223a858386016120ce565b604084015261224c8560608601611f71565b606084015261225e8560e08601611ef1565b608084015261012084013591508082111561227857600080fd5b6122848583860161205c565b60a084015261014084013591508082111561229e57600080fd5b6122aa8583860161205c565b60c08401526101608401359150808211156122c457600080fd5b506122d184828501612132565b60e08301525092915050565b6000806000806000608086880312156122f557600080fd5b85359450602086013567ffffffffffffffff8082111561231457600080fd5b818801915088601f83011261232857600080fd5b81358181111561233757600080fd5b89602082850101111561234957600080fd5b602083019650945061235d60408901612024565b9350606088013591508082111561237357600080fd5b50612380888289016121b2565b9150509295509295909350565b600081518084526020808501945080840160005b838110156123c65781516001600160601b0316875295820195908201906001016123a1565b509495945050505050565b60408152600083516040808401526123ec608084018261238d565b90506020850151603f19848303016060850152612409828261238d565b925050508260208301529392505050565b634e487b7160e01b600052603260045260246000fd5b60008261244d57634e487b7160e01b600052601260045260246000fd5b500690565b60006020828403121561246457600080fd5b81516001600160a01b038116811461191657600080fd5b60006020828403121561248d57600080fd5b815160ff8116811461191657600080fd5b634e487b7160e01b600052601160045260246000fd5b818103818111156119195761191961249e565b6000602082840312156124d957600080fd5b81516001600160c01b038116811461191657600080fd5b6000600182016125025761250261249e565b5060010190565b60006020828403121561251b57600080fd5b5051919050565b808201808211156119195761191961249e565b60006020828403121561254757600080fd5b815167ffffffffffffffff198116811461191657600080fd5b60006020828403121561257257600080fd5b81516001600160601b038116811461191657600080fd5b6001600160601b038281168282160390808211156125a9576125a961249e565b5092915050565b63ffffffff60e01b8360e01b1681526000600482018351602080860160005b838110156125eb578151855293820193908201906001016125cf565b5092979650505050505050565b80820281158282048414176119195761191961249e565b600061ffff8083168181036126265761262661249e565b600101939250505056fe30644e72e131a029b85045b68181585d97816a916871ca8d3c208c16d87cfd47424c535369676e6174757265436865636b65722e636865636b5369676e617475a2646970667358221220fa7b3480738bcb76bed59cfc9c38038daacaedafa509601208fead847099880764736f6c63430008140033","linkReferences":{}},"methodIdentifiers":{"blsApkRegistry()":"5df45946","checkSignatures(bytes32,bytes,uint32,(uint32[],(uint256,uint256)[],(uint256,uint256)[],(uint256[2],uint256[2]),(uint256,uint256),uint32[],uint32[],uint32[][]))":"6efb4636","delegation()":"df5cf723","registryCoordinator()":"6d14a987","setStaleStakesForbidden(bool)":"416c7e5e","stakeRegistry()":"68304835","staleStakesForbidden()":"b98d0908","trySignatureAndApkVerification(bytes32,(uint256,uint256),(uint256[2],uint256[2]),(uint256,uint256))":"171f1d5b"},"id":18}