{"abi":[{"type":"constructor","inputs":[{"name":"_eigenDAServiceManager","type":"address","internalType":"contract IEigenDAServiceManager"}],"stateMutability":"nonpayable"},{"type":"function","name":"getProcotolName","inputs":[],"outputs":[{"name":"","type":"string","internalType":"string"}],"stateMutability":"pure"},{"type":"function","name":"verifyMessage","inputs":[{"name":"","type":"bytes32","internalType":"bytes32"},{"name":"data","type":"bytes","internalType":"bytes"}],"outputs":[],"stateMutability":"view"}],"bytecode":{"object":"0x608060405234801561001057600080fd5b506040516109e43803806109e483398101604081905261002f91610054565b600080546001600160a01b0319166001600160a01b0392909216919091179055610084565b60006020828403121561006657600080fd5b81516001600160a01b038116811461007d57600080fd5b9392505050565b610951806100936000396000f3fe608060405234801561001057600080fd5b50600436106100365760003560e01c80633b51be4b1461003b578063e4f1712014610050575b600080fd5b61004e610049366004610630565b610082565b005b6040805180820182526007815266456967656e444160c81b6020820152905161007991906106f2565b60405180910390f35b60006100c383838080601f01602080910402602001604051908101604052809392919081815260200183838082843760009201919091525061014992505050565b8051600054602083015160405163219460e160e21b815293945073__$399f9ce8dd33a06d144ce1eb24d845e280$__936386518384936101139390926001600160a01b03909116916004016107df565b60006040518083038186803b15801561012b57600080fd5b505af415801561013f573d6000803e3d6000fd5b5050505050505050565b61015161058f565b600061015d8382610295565b82515261016b6040826108c3565b905061017783826102d7565b825163ffffffff90911660209182015261019190826108c3565b9050600061019f84836102d7565b63ffffffff1690506101b26020836108c3565b91508067ffffffffffffffff8111156101cd576101cd6108d6565b60405190808252806020026020018201604052801561021f57816020015b6040805160808101825260008082526020808301829052928201819052606082015282526000199092019101816101eb5790505b5083516040015260005b8181101561027d5761023b85846102e5565b845160400151805183908110610253576102536108ec565b60209081029190910101526102696027846108c3565b92508061027581610902565b915050610229565b506102888483610377565b6020840152509092915050565b60408051808201909152600080825260208201526102b383836102d7565b81526102c06020836108c3565b91506102cc83836102d7565b602082015292915050565b818101602001515b92915050565b6040805160808101825260008082526020820181905291810182905260608101919091528183016001015160ff1681526103206001836108c3565b8381016001015190925060ff16602082015261033d6001836108c3565b8381016001015190925060ff16604082015261035a6001836108c3565b915061036683836102d7565b63ffffffff16606082015292915050565b61037f6105d1565b61038983836102d7565b63ffffffff16815261039c6020836108c3565b91506103a883836102d7565b63ffffffff166020808301919091526103c190836108c3565b91506103cd83836102d7565b604082015151526103df6020836108c3565b91506103eb8383610503565b604082015151602001526104028383016020015190565b61040d9060206108c3565b61041790836108c3565b91506104238383610503565b6040828101515101526020828401015161043e9060206108c3565b61044890836108c3565b915061045483836102d7565b60408201515163ffffffff9091166060909101526104736020836108c3565b915061047f83836102d7565b604082015160209081019190915261049790836108c3565b91506104a383836102d7565b60408083015163ffffffff9092169101526104bf6020836108c3565b91506104cb8383610503565b6060820152602082840101516104e29060206108c3565b6104ec90836108c3565b91506104f88383610503565b608082015292915050565b606060006105148484016020015190565b905060008167ffffffffffffffff811115610531576105316108d6565b6040519080825280601f01601f19166020018201604052801561055b576020820181803683370190505b5090508484016040016020820160005b8481101561058357828101518282015260200161056b565b50919695505050505050565b6040805160e081018252600060a0820181815260c083018290529282019283526060808301919091526080820152908152602081016105cc6105d1565b905290565b6040805160a0808201835260008083526020808401829052845160e0810186526060808201848152608083018290529482015260c081018390529283528201819052818401529091820190815260200160608152602001606081525090565b60008060006040848603121561064557600080fd5b83359250602084013567ffffffffffffffff8082111561066457600080fd5b818601915086601f83011261067857600080fd5b81358181111561068757600080fd5b87602082850101111561069957600080fd5b6020830194508093505050509250925092565b6000815180845260005b818110156106d2576020818501810151868301820152016106b6565b506000602082860101526020601f19601f83011685010191505092915050565b60208152600061070560208301846106ac565b9392505050565b600063ffffffff808351168452806020840151166020850152604083015160a060408601528051606060a087015280516101008701526020810151608061012088015261075d6101808801826106ac565b9050604082015160ff198883030161014089015261077b82826106ac565b91505083606083015116610160880152602083015160c08801528360408401511660e08801526060860151935086810360608801526107ba81856106ac565b9350505050608083015184820360808601526107d682826106ac565b95945050505050565b6000606080835260e083018651805183860152602080820151915060808281880152818a0151925063ffffffff80841660a089015260409350838b01518260c08a01528581518088526101008b0191508583019750600092505b8083101561087c578751805160ff908116845287820151811688850152888201511688840152890151841689830152968501966001929092019190840190610839565b506001600160a01b038c168a860152898103868b015261089c818c61070c565b9d9c50505050505050505050505050565b634e487b7160e01b600052601160045260246000fd5b808201808211156102df576102df6108ad565b634e487b7160e01b600052604160045260246000fd5b634e487b7160e01b600052603260045260246000fd5b600060018201610914576109146108ad565b506001019056fea2646970667358221220af5ec143c07e9ea5feb76e0ed1b58c185b4b8cf478f145bcf24af0bc49c1816964736f6c63430008140033","linkReferences":{"lib/eigenda/contracts/src/libraries/EigenDARollupUtils.sol":{"EigenDARollupUtils":[{"start":370,"length":20}]}}},"methodIdentifiers":{"getProcotolName()":"e4f17120","verifyMessage(bytes32,bytes)":"3b51be4b"},"id":32}