{"abi":[{"type":"constructor","inputs":[{"name":"_admin","type":"address","internalType":"address"},{"name":"_eigenDAServiceManager","type":"address","internalType":"contract IEigenDAServiceManager"}],"stateMutability":"nonpayable"},{"type":"function","name":"acceptAdminRole","inputs":[],"outputs":[],"stateMutability":"nonpayable"},{"type":"function","name":"admin","inputs":[],"outputs":[{"name":"","type":"address","internalType":"address"}],"stateMutability":"view"},{"type":"function","name":"decodeBlobData","inputs":[{"name":"data","type":"bytes","internalType":"bytes"}],"outputs":[{"name":"blobData","type":"tuple","internalType":"struct EigenDAVerifier.BlobData","components":[{"name":"blobHeader","type":"tuple","internalType":"struct IEigenDAServiceManager.BlobHeader","components":[{"name":"commitment","type":"tuple","internalType":"struct BN254.G1Point","components":[{"name":"X","type":"uint256","internalType":"uint256"},{"name":"Y","type":"uint256","internalType":"uint256"}]},{"name":"dataLength","type":"uint32","internalType":"uint32"},{"name":"quorumBlobParams","type":"tuple[]","internalType":"struct IEigenDAServiceManager.QuorumBlobParam[]","components":[{"name":"quorumNumber","type":"uint8","internalType":"uint8"},{"name":"adversaryThresholdPercentage","type":"uint8","internalType":"uint8"},{"name":"confirmationThresholdPercentage","type":"uint8","internalType":"uint8"},{"name":"chunkLength","type":"uint32","internalType":"uint32"}]}]},{"name":"blobVerificationProof","type":"tuple","internalType":"struct EigenDARollupUtils.BlobVerificationProof","components":[{"name":"batchId","type":"uint32","internalType":"uint32"},{"name":"blobIndex","type":"uint32","internalType":"uint32"},{"name":"batchMetadata","type":"tuple","internalType":"struct IEigenDAServiceManager.BatchMetadata","components":[{"name":"batchHeader","type":"tuple","internalType":"struct IEigenDAServiceManager.BatchHeader","components":[{"name":"blobHeadersRoot","type":"bytes32","internalType":"bytes32"},{"name":"quorumNumbers","type":"bytes","internalType":"bytes"},{"name":"signedStakeForQuorums","type":"bytes","internalType":"bytes"},{"name":"referenceBlockNumber","type":"uint32","internalType":"uint32"}]},{"name":"signatoryRecordHash","type":"bytes32","internalType":"bytes32"},{"name":"confirmationBlockNumber","type":"uint32","internalType":"uint32"}]},{"name":"inclusionProof","type":"bytes","internalType":"bytes"},{"name":"quorumIndices","type":"bytes","internalType":"bytes"}]},{"name":"batchHeaderHash","type":"bytes","internalType":"bytes"}]}],"stateMutability":"pure"},{"type":"function","name":"getProcotolName","inputs":[],"outputs":[{"name":"","type":"string","internalType":"string"}],"stateMutability":"pure"},{"type":"function","name":"pendingAdmin","inputs":[],"outputs":[{"name":"","type":"address","internalType":"address"}],"stateMutability":"view"},{"type":"function","name":"setDataAvailabilityProtocol","inputs":[{"name":"newDataAvailabilityProtocol","type":"address","internalType":"contract IEigenDAServiceManager"}],"outputs":[],"stateMutability":"nonpayable"},{"type":"function","name":"transferAdminRole","inputs":[{"name":"newPendingAdmin","type":"address","internalType":"address"}],"outputs":[],"stateMutability":"nonpayable"},{"type":"function","name":"verifyMessage","inputs":[{"name":"","type":"bytes32","internalType":"bytes32"},{"name":"data","type":"bytes","internalType":"bytes"}],"outputs":[],"stateMutability":"view"},{"type":"event","name":"AcceptAdminRole","inputs":[{"name":"newAdmin","type":"address","indexed":false,"internalType":"address"}],"anonymous":false},{"type":"event","name":"SetDataAvailabilityProtocol","inputs":[{"name":"newTrustedSequencer","type":"address","indexed":false,"internalType":"contract IEigenDAServiceManager"}],"anonymous":false},{"type":"event","name":"TransferAdminRole","inputs":[{"name":"newPendingAdmin","type":"address","indexed":false,"internalType":"address"}],"anonymous":false},{"type":"error","name":"BatchAlreadyVerified","inputs":[]},{"type":"error","name":"BatchNotSequencedOrNotSequenceEnd","inputs":[]},{"type":"error","name":"ExceedMaxVerifyBatches","inputs":[]},{"type":"error","name":"FinalNumBatchBelowLastVerifiedBatch","inputs":[]},{"type":"error","name":"FinalNumBatchDoesNotMatchPendingState","inputs":[]},{"type":"error","name":"FinalPendingStateNumInvalid","inputs":[]},{"type":"error","name":"ForceBatchNotAllowed","inputs":[]},{"type":"error","name":"ForceBatchTimeoutNotExpired","inputs":[]},{"type":"error","name":"ForceBatchesAlreadyActive","inputs":[]},{"type":"error","name":"ForceBatchesDecentralized","inputs":[]},{"type":"error","name":"ForceBatchesNotAllowedOnEmergencyState","inputs":[]},{"type":"error","name":"ForceBatchesOverflow","inputs":[]},{"type":"error","name":"ForcedDataDoesNotMatch","inputs":[]},{"type":"error","name":"GasTokenNetworkMustBeZeroOnEther","inputs":[]},{"type":"error","name":"GlobalExitRootNotExist","inputs":[]},{"type":"error","name":"HaltTimeoutNotExpired","inputs":[]},{"type":"error","name":"HaltTimeoutNotExpiredAfterEmergencyState","inputs":[]},{"type":"error","name":"HugeTokenMetadataNotSupported","inputs":[]},{"type":"error","name":"InitNumBatchAboveLastVerifiedBatch","inputs":[]},{"type":"error","name":"InitNumBatchDoesNotMatchPendingState","inputs":[]},{"type":"error","name":"InitSequencedBatchDoesNotMatch","inputs":[]},{"type":"error","name":"InvalidInitializeTransaction","inputs":[]},{"type":"error","name":"InvalidProof","inputs":[]},{"type":"error","name":"InvalidRangeBatchTimeTarget","inputs":[]},{"type":"error","name":"InvalidRangeForceBatchTimeout","inputs":[]},{"type":"error","name":"InvalidRangeMultiplierBatchFee","inputs":[]},{"type":"error","name":"MaxTimestampSequenceInvalid","inputs":[]},{"type":"error","name":"NewAccInputHashDoesNotExist","inputs":[]},{"type":"error","name":"NewPendingStateTimeoutMustBeLower","inputs":[]},{"type":"error","name":"NewStateRootNotInsidePrime","inputs":[]},{"type":"error","name":"NewTrustedAggregatorTimeoutMustBeLower","inputs":[]},{"type":"error","name":"NotEnoughMaticAmount","inputs":[]},{"type":"error","name":"NotEnoughPOLAmount","inputs":[]},{"type":"error","name":"OldAccInputHashDoesNotExist","inputs":[]},{"type":"error","name":"OldStateRootDoesNotExist","inputs":[]},{"type":"error","name":"OnlyAdmin","inputs":[]},{"type":"error","name":"OnlyPendingAdmin","inputs":[]},{"type":"error","name":"OnlyRollupManager","inputs":[]},{"type":"error","name":"OnlyTrustedAggregator","inputs":[]},{"type":"error","name":"OnlyTrustedSequencer","inputs":[]},{"type":"error","name":"PendingStateDoesNotExist","inputs":[]},{"type":"error","name":"PendingStateInvalid","inputs":[]},{"type":"error","name":"PendingStateNotConsolidable","inputs":[]},{"type":"error","name":"PendingStateTimeoutExceedHaltAggregationTimeout","inputs":[]},{"type":"error","name":"SequenceZeroBatches","inputs":[]},{"type":"error","name":"SequencedTimestampBelowForcedTimestamp","inputs":[]},{"type":"error","name":"SequencedTimestampInvalid","inputs":[]},{"type":"error","name":"StoredRootMustBeDifferentThanNewRoot","inputs":[]},{"type":"error","name":"TransactionsLengthAboveMax","inputs":[]},{"type":"error","name":"TrustedAggregatorTimeoutExceedHaltAggregationTimeout","inputs":[]},{"type":"error","name":"TrustedAggregatorTimeoutNotExpired","inputs":[]}],"bytecode":{"object":"0x608060405234801561001057600080fd5b50604051610e0a380380610e0a83398101604081905261002f91610078565b600180546001600160a01b039384166001600160a01b031991821617909155600080549290931691161790556100b2565b6001600160a01b038116811461007557600080fd5b50565b6000806040838503121561008b57600080fd5b825161009681610060565b60208401519092506100a781610060565b809150509250929050565b610d49806100c16000396000f3fe608060405234801561001057600080fd5b50600436106100885760003560e01c8063aba4c80d1161005b578063aba4c80d146100ed578063ada8f9191461010d578063e4f1712014610120578063f851a4401461014957600080fd5b8063267822471461008d5780633b51be4b146100bd5780637cd76b8b146100d25780638c3d7301146100e5575b600080fd5b6002546100a0906001600160a01b031681565b6040516001600160a01b0390911681526020015b60405180910390f35b6100d06100cb366004610475565b61015c565b005b6100d06100e03660046104d9565b6101ee565b6100d061026e565b6101006100fb3660046104f6565b6102ef565b6040516100b49190610651565b6100d061011b3660046104d9565b61030a565b6040805180820182526007815266456967656e444160c81b602082015290516100b4919061074c565b6001546100a0906001600160a01b031681565b600061016883836102ef565b8051600054602083015160405163219460e160e21b815293945073__$399f9ce8dd33a06d144ce1eb24d845e280$__936386518384936101b89390926001600160a01b039091169160040161075f565b60006040518083038186803b1580156101d057600080fd5b505af41580156101e4573d6000803e3d6000fd5b5050505050505050565b6001546001600160a01b0316331461021957604051634755657960e01b815260040160405180910390fd5b600080546001600160a01b0319166001600160a01b0383169081179091556040519081527fd331bd4c4cd1afecb94a225184bded161ff3213624ba4fb58c4f30c5a861144a906020015b60405180910390a150565b6002546001600160a01b031633146102995760405163d1ec4b2360e01b815260040160405180910390fd5b600254600180546001600160a01b0319166001600160a01b0390921691821790556040519081527f056dc487bbf0795d0bbb1b4f0af523a855503cff740bfb4d5475f7a90c091e8e9060200160405180910390a1565b6102f7610383565b61030382840184610b36565b9392505050565b6001546001600160a01b0316331461033557604051634755657960e01b815260040160405180910390fd5b600280546001600160a01b0319166001600160a01b0383169081179091556040519081527fa5b56b7906fd0a20e3f35120dd8343db1e12e037a6c90111c7e42885e82a1ce690602001610263565b604080516101008101909152600060c0820181815260e083018290526060808401918252608084019290925260a083019190915281526020810161041f6040805160a0808201835260008083526020808401829052845160e0810186526060808201848152608083018290529482015260c081018390529283528201819052818401529091820190815260200160608152602001606081525090565b8152602001606081525090565b60008083601f84011261043e57600080fd5b50813567ffffffffffffffff81111561045657600080fd5b60208301915083602082850101111561046e57600080fd5b9250929050565b60008060006040848603121561048a57600080fd5b83359250602084013567ffffffffffffffff8111156104a857600080fd5b6104b48682870161042c565b9497909650939450505050565b6001600160a01b03811681146104d657600080fd5b50565b6000602082840312156104eb57600080fd5b8135610303816104c1565b6000806020838503121561050957600080fd5b823567ffffffffffffffff81111561052057600080fd5b61052c8582860161042c565b90969095509350505050565b6000815180845260005b8181101561055e57602081850181015186830182015201610542565b506000602082860101526020601f19601f83011685010191505092915050565b600063ffffffff808351168452806020840151166020850152604083015160a060408601528051606060a08701528051610100870152602081015160806101208801526105cf610180880182610538565b9050604082015160ff19888303016101408901526105ed8282610538565b91505083606083015116610160880152602083015160c08801528360408401511660e088015260608601519350868103606088015261062c8185610538565b9350505050608083015184820360808601526106488282610538565b95945050505050565b6000602080835260808451606083860152610100850161067e838701835180518252602090810151910152565b8184015163ffffffff1660c087015260409091015160e086018390528051918290528301906000906101208701905b80831015610704576106f082855160ff815116825260ff602082015116602083015260ff604082015116604083015263ffffffff60608201511660608301525050565b9285019260019290920191908401906106ad565b50848801519450601f19935083878203016040880152610724818661057e565b94505050506040850151818584030160608601526107428382610538565b9695505050505050565b6020815260006103036020830184610538565b60608152600060e0820161078160608401875180518252602090810151910152565b60208681015163ffffffff1660a08501526040870151608060c0860181905281519384905290820192600091906101008701905b8084101561080c576107f882875160ff815116825260ff602082015116602083015260ff604082015116604083015263ffffffff60608201511660608301525050565b9484019460019390930192908201906107b5565b506001600160a01b03891687850152868103604088015261082d818961057e565b9a9950505050505050505050565b634e487b7160e01b600052604160045260246000fd5b6040516060810167ffffffffffffffff811182821017156108745761087461083b565b60405290565b6040516080810167ffffffffffffffff811182821017156108745761087461083b565b60405160a0810167ffffffffffffffff811182821017156108745761087461083b565b6040805190810167ffffffffffffffff811182821017156108745761087461083b565b604051601f8201601f1916810167ffffffffffffffff8111828210171561090c5761090c61083b565b604052919050565b803563ffffffff8116811461092857600080fd5b919050565b803560ff8116811461092857600080fd5b600082601f83011261094f57600080fd5b813567ffffffffffffffff8111156109695761096961083b565b61097c601f8201601f19166020016108e3565b81815284602083860101111561099157600080fd5b816020850160208301376000918101602001919091529392505050565b6000606082840312156109c057600080fd5b6109c8610851565b9050813567ffffffffffffffff808211156109e257600080fd5b90830190608082860312156109f657600080fd5b6109fe61087a565b82358152602083013582811115610a1457600080fd5b610a208782860161093e565b602083015250604083013582811115610a3857600080fd5b610a448782860161093e565b604083015250610a5660608401610914565b60608201528352505060208281013590820152610a7560408301610914565b604082015292915050565b600060a08284031215610a9257600080fd5b610a9a61089d565b9050610aa582610914565b8152610ab360208301610914565b6020820152604082013567ffffffffffffffff80821115610ad357600080fd5b610adf858386016109ae565b60408401526060840135915080821115610af857600080fd5b610b048583860161093e565b60608401526080840135915080821115610b1d57600080fd5b50610b2a8482850161093e565b60808301525092915050565b60006020808385031215610b4957600080fd5b823567ffffffffffffffff80821115610b6157600080fd5b9084019060608287031215610b7557600080fd5b610b7d610851565b823582811115610b8c57600080fd5b8301808803608080821215610ba057600080fd5b610ba8610851565b604080841215610bb757600080fd5b610bbf6108c0565b9350843584528885013589850152838252610bdb818601610914565b898301526060850135935086841115610bf357600080fd5b83850194508b601f860112610c0757600080fd5b8435935086841115610c1b57610c1b61083b565b610c29898560051b016108e3565b84815260079490941b8501890193898101908d861115610c4857600080fd5b958a01955b85871015610cb65784878f031215610c655760008081fd5b610c6d61087a565b610c768861092d565b8152610c838c890161092d565b8c820152610c9284890161092d565b84820152610ca260608901610914565b6060820152825295840195908a0190610c4d565b838301525081865287890135945086851115610cd157600080fd5b610cdd8c868a01610a80565b8987015280880135985086891115610cf457600080fd5b610d008c8a8a0161093e565b908601525092999850505050505050505056fea26469706673582212206a4f870375549d9187c64796196301fa27c85d017b77ca2c1dbbe99b5fca012064736f6c63430008140033","linkReferences":{"lib/eigenda/contracts/src/libraries/EigenDARollupUtils.sol":{"EigenDARollupUtils":[{"start":581,"length":20}]}}},"methodIdentifiers":{"acceptAdminRole()":"8c3d7301","admin()":"f851a440","decodeBlobData(bytes)":"aba4c80d","getProcotolName()":"e4f17120","pendingAdmin()":"26782247","setDataAvailabilityProtocol(address)":"7cd76b8b","transferAdminRole(address)":"ada8f919","verifyMessage(bytes32,bytes)":"3b51be4b"},"id":57}