{"abi":[{"type":"constructor","inputs":[{"name":"_admin","type":"address","internalType":"address"},{"name":"_eigenDAServiceManager","type":"address","internalType":"contract IEigenDAServiceManager"}],"stateMutability":"nonpayable"},{"type":"function","name":"acceptAdminRole","inputs":[],"outputs":[],"stateMutability":"nonpayable"},{"type":"function","name":"admin","inputs":[],"outputs":[{"name":"","type":"address","internalType":"address"}],"stateMutability":"view"},{"type":"function","name":"getProcotolName","inputs":[],"outputs":[{"name":"","type":"string","internalType":"string"}],"stateMutability":"pure"},{"type":"function","name":"pendingAdmin","inputs":[],"outputs":[{"name":"","type":"address","internalType":"address"}],"stateMutability":"view"},{"type":"function","name":"setDataAvailabilityProtocol","inputs":[{"name":"newDataAvailabilityProtocol","type":"address","internalType":"contract IEigenDAServiceManager"}],"outputs":[],"stateMutability":"nonpayable"},{"type":"function","name":"transferAdminRole","inputs":[{"name":"newPendingAdmin","type":"address","internalType":"address"}],"outputs":[],"stateMutability":"nonpayable"},{"type":"function","name":"verifyMessage","inputs":[{"name":"","type":"bytes32","internalType":"bytes32"},{"name":"data","type":"bytes","internalType":"bytes"}],"outputs":[],"stateMutability":"view"},{"type":"event","name":"AcceptAdminRole","inputs":[{"name":"newAdmin","type":"address","indexed":false,"internalType":"address"}],"anonymous":false},{"type":"event","name":"SetDataAvailabilityProtocol","inputs":[{"name":"newTrustedSequencer","type":"address","indexed":false,"internalType":"contract IEigenDAServiceManager"}],"anonymous":false},{"type":"event","name":"TransferAdminRole","inputs":[{"name":"newPendingAdmin","type":"address","indexed":false,"internalType":"address"}],"anonymous":false},{"type":"error","name":"BatchAlreadyVerified","inputs":[]},{"type":"error","name":"BatchNotSequencedOrNotSequenceEnd","inputs":[]},{"type":"error","name":"ExceedMaxVerifyBatches","inputs":[]},{"type":"error","name":"FinalNumBatchBelowLastVerifiedBatch","inputs":[]},{"type":"error","name":"FinalNumBatchDoesNotMatchPendingState","inputs":[]},{"type":"error","name":"FinalPendingStateNumInvalid","inputs":[]},{"type":"error","name":"ForceBatchNotAllowed","inputs":[]},{"type":"error","name":"ForceBatchTimeoutNotExpired","inputs":[]},{"type":"error","name":"ForceBatchesAlreadyActive","inputs":[]},{"type":"error","name":"ForceBatchesDecentralized","inputs":[]},{"type":"error","name":"ForceBatchesNotAllowedOnEmergencyState","inputs":[]},{"type":"error","name":"ForceBatchesOverflow","inputs":[]},{"type":"error","name":"ForcedDataDoesNotMatch","inputs":[]},{"type":"error","name":"GasTokenNetworkMustBeZeroOnEther","inputs":[]},{"type":"error","name":"GlobalExitRootNotExist","inputs":[]},{"type":"error","name":"HaltTimeoutNotExpired","inputs":[]},{"type":"error","name":"HaltTimeoutNotExpiredAfterEmergencyState","inputs":[]},{"type":"error","name":"HugeTokenMetadataNotSupported","inputs":[]},{"type":"error","name":"InitNumBatchAboveLastVerifiedBatch","inputs":[]},{"type":"error","name":"InitNumBatchDoesNotMatchPendingState","inputs":[]},{"type":"error","name":"InitSequencedBatchDoesNotMatch","inputs":[]},{"type":"error","name":"InvalidInitializeTransaction","inputs":[]},{"type":"error","name":"InvalidProof","inputs":[]},{"type":"error","name":"InvalidRangeBatchTimeTarget","inputs":[]},{"type":"error","name":"InvalidRangeForceBatchTimeout","inputs":[]},{"type":"error","name":"InvalidRangeMultiplierBatchFee","inputs":[]},{"type":"error","name":"MaxTimestampSequenceInvalid","inputs":[]},{"type":"error","name":"NewAccInputHashDoesNotExist","inputs":[]},{"type":"error","name":"NewPendingStateTimeoutMustBeLower","inputs":[]},{"type":"error","name":"NewStateRootNotInsidePrime","inputs":[]},{"type":"error","name":"NewTrustedAggregatorTimeoutMustBeLower","inputs":[]},{"type":"error","name":"NotEnoughMaticAmount","inputs":[]},{"type":"error","name":"NotEnoughPOLAmount","inputs":[]},{"type":"error","name":"OldAccInputHashDoesNotExist","inputs":[]},{"type":"error","name":"OldStateRootDoesNotExist","inputs":[]},{"type":"error","name":"OnlyAdmin","inputs":[]},{"type":"error","name":"OnlyPendingAdmin","inputs":[]},{"type":"error","name":"OnlyRollupManager","inputs":[]},{"type":"error","name":"OnlyTrustedAggregator","inputs":[]},{"type":"error","name":"OnlyTrustedSequencer","inputs":[]},{"type":"error","name":"PendingStateDoesNotExist","inputs":[]},{"type":"error","name":"PendingStateInvalid","inputs":[]},{"type":"error","name":"PendingStateNotConsolidable","inputs":[]},{"type":"error","name":"PendingStateTimeoutExceedHaltAggregationTimeout","inputs":[]},{"type":"error","name":"SequenceZeroBatches","inputs":[]},{"type":"error","name":"SequencedTimestampBelowForcedTimestamp","inputs":[]},{"type":"error","name":"SequencedTimestampInvalid","inputs":[]},{"type":"error","name":"StoredRootMustBeDifferentThanNewRoot","inputs":[]},{"type":"error","name":"TransactionsLengthAboveMax","inputs":[]},{"type":"error","name":"TrustedAggregatorTimeoutExceedHaltAggregationTimeout","inputs":[]},{"type":"error","name":"TrustedAggregatorTimeoutNotExpired","inputs":[]}],"bytecode":{"object":"0x608060405234801561001057600080fd5b50604051610c70380380610c7083398101604081905261002f91610078565b600180546001600160a01b039384166001600160a01b031991821617909155600080549290931691161790556100b2565b6001600160a01b038116811461007557600080fd5b50565b6000806040838503121561008b57600080fd5b825161009681610060565b60208401519092506100a781610060565b809150509250929050565b610baf806100c16000396000f3fe608060405234801561001057600080fd5b506004361061007d5760003560e01c80638c3d73011161005b5780638c3d7301146100da578063ada8f919146100e2578063e4f17120146100f5578063f851a4401461011e57600080fd5b806326782247146100825780633b51be4b146100b25780637cd76b8b146100c7575b600080fd5b600254610095906001600160a01b031681565b6040516001600160a01b0390911681526020015b60405180910390f35b6100c56100c0366004610859565b610131565b005b6100c56100d53660046108ed565b6101f8565b6100c5610278565b6100c56100f03660046108ed565b6102f9565b6040805180820182526007815266456967656e444160c81b602082015290516100a99190610957565b600154610095906001600160a01b031681565b600061017283838080601f01602080910402602001604051908101604052809392919081815260200183838082843760009201919091525061037292505050565b8051600054602083015160405163219460e160e21b815293945073__$399f9ce8dd33a06d144ce1eb24d845e280$__936386518384936101c29390926001600160a01b0390911691600401610a3d565b60006040518083038186803b1580156101da57600080fd5b505af41580156101ee573d6000803e3d6000fd5b5050505050505050565b6001546001600160a01b0316331461022357604051634755657960e01b815260040160405180910390fd5b600080546001600160a01b0319166001600160a01b0383169081179091556040519081527fd331bd4c4cd1afecb94a225184bded161ff3213624ba4fb58c4f30c5a861144a906020015b60405180910390a150565b6002546001600160a01b031633146102a35760405163d1ec4b2360e01b815260040160405180910390fd5b600254600180546001600160a01b0319166001600160a01b0390921691821790556040519081527f056dc487bbf0795d0bbb1b4f0af523a855503cff740bfb4d5475f7a90c091e8e9060200160405180910390a1565b6001546001600160a01b0316331461032457604051634755657960e01b815260040160405180910390fd5b600280546001600160a01b0319166001600160a01b0383169081179091556040519081527fa5b56b7906fd0a20e3f35120dd8343db1e12e037a6c90111c7e42885e82a1ce69060200161026d565b61037a6107b8565b600061038683826104be565b825152610394604082610b21565b90506103a08382610500565b825163ffffffff9091166020918201526103ba9082610b21565b905060006103c88483610500565b63ffffffff1690506103db602083610b21565b91508067ffffffffffffffff8111156103f6576103f6610b34565b60405190808252806020026020018201604052801561044857816020015b6040805160808101825260008082526020808301829052928201819052606082015282526000199092019101816104145790505b5083516040015260005b818110156104a657610464858461050e565b84516040015180518390811061047c5761047c610b4a565b6020908102919091010152610492602784610b21565b92508061049e81610b60565b915050610452565b506104b184836105a0565b6020840152509092915050565b60408051808201909152600080825260208201526104dc8383610500565b81526104e9602083610b21565b91506104f58383610500565b602082015292915050565b818101602001515b92915050565b6040805160808101825260008082526020820181905291810182905260608101919091528183016001015160ff168152610549600183610b21565b8381016001015190925060ff166020820152610566600183610b21565b8381016001015190925060ff166040820152610583600183610b21565b915061058f8383610500565b63ffffffff16606082015292915050565b6105a86107fa565b6105b28383610500565b63ffffffff1681526105c5602083610b21565b91506105d18383610500565b63ffffffff166020808301919091526105ea9083610b21565b91506105f68383610500565b60408201515152610608602083610b21565b9150610614838361072c565b6040820151516020015261062b8383016020015190565b610636906020610b21565b6106409083610b21565b915061064c838361072c565b60408281015151015260208284010151610667906020610b21565b6106719083610b21565b915061067d8383610500565b60408201515163ffffffff90911660609091015261069c602083610b21565b91506106a88383610500565b60408201516020908101919091526106c09083610b21565b91506106cc8383610500565b60408083015163ffffffff9092169101526106e8602083610b21565b91506106f4838361072c565b60608201526020828401015161070b906020610b21565b6107159083610b21565b9150610721838361072c565b608082015292915050565b6060600061073d8484016020015190565b905060008167ffffffffffffffff81111561075a5761075a610b34565b6040519080825280601f01601f191660200182016040528015610784576020820181803683370190505b5090508484016040016020820160005b848110156107ac578281015182820152602001610794565b50919695505050505050565b6040805160e081018252600060a0820181815260c083018290529282019283526060808301919091526080820152908152602081016107f56107fa565b905290565b6040805160a0808201835260008083526020808401829052845160e0810186526060808201848152608083018290529482015260c081018390529283528201819052818401529091820190815260200160608152602001606081525090565b60008060006040848603121561086e57600080fd5b83359250602084013567ffffffffffffffff8082111561088d57600080fd5b818601915086601f8301126108a157600080fd5b8135818111156108b057600080fd5b8760208285010111156108c257600080fd5b6020830194508093505050509250925092565b6001600160a01b03811681146108ea57600080fd5b50565b6000602082840312156108ff57600080fd5b813561090a816108d5565b9392505050565b6000815180845260005b818110156109375760208185018101518683018201520161091b565b506000602082860101526020601f19601f83011685010191505092915050565b60208152600061090a6020830184610911565b600063ffffffff808351168452806020840151166020850152604083015160a060408601528051606060a08701528051610100870152602081015160806101208801526109bb610180880182610911565b9050604082015160ff19888303016101408901526109d98282610911565b91505083606083015116610160880152602083015160c08801528360408401511660e0880152606086015193508681036060880152610a188185610911565b935050505060808301518482036080860152610a348282610911565b95945050505050565b6000606080835260e083018651805183860152602080820151915060808281880152818a0151925063ffffffff80841660a089015260409350838b01518260c08a01528581518088526101008b0191508583019750600092505b80831015610ada578751805160ff908116845287820151811688850152888201511688840152890151841689830152968501966001929092019190840190610a97565b506001600160a01b038c168a860152898103868b0152610afa818c61096a565b9d9c50505050505050505050505050565b634e487b7160e01b600052601160045260246000fd5b8082018082111561050857610508610b0b565b634e487b7160e01b600052604160045260246000fd5b634e487b7160e01b600052603260045260246000fd5b600060018201610b7257610b72610b0b565b506001019056fea2646970667358221220089e29c1742e48b3ee675e5d841e0c31b4800a691dc1a0bae4752a52ed64e75a64736f6c63430008140033","linkReferences":{"lib/eigenda/contracts/src/libraries/EigenDARollupUtils.sol":{"EigenDARollupUtils":[{"start":591,"length":20}]}}},"methodIdentifiers":{"acceptAdminRole()":"8c3d7301","admin()":"f851a440","getProcotolName()":"e4f17120","pendingAdmin()":"26782247","setDataAvailabilityProtocol(address)":"7cd76b8b","transferAdminRole(address)":"ada8f919","verifyMessage(bytes32,bytes)":"3b51be4b"},"id":34}