{"abi":[{"type":"function","name":"getQuorumAdversaryThreshold","inputs":[{"name":"eigenDAServiceManager","type":"IEigenDAServiceManager","internalType":"contract IEigenDAServiceManager"},{"name":"quorumNumber","type":"uint256","internalType":"uint256"}],"outputs":[{"name":"adversaryThresholdPercentage","type":"uint8","internalType":"uint8"}],"stateMutability":"view"},{"type":"function","name":"verifyBlob","inputs":[{"name":"blobHeader","type":"tuple","internalType":"struct IEigenDAServiceManager.BlobHeader","components":[{"name":"commitment","type":"tuple","internalType":"struct BN254.G1Point","components":[{"name":"X","type":"uint256","internalType":"uint256"},{"name":"Y","type":"uint256","internalType":"uint256"}]},{"name":"dataLength","type":"uint32","internalType":"uint32"},{"name":"quorumBlobParams","type":"tuple[]","internalType":"struct IEigenDAServiceManager.QuorumBlobParam[]","components":[{"name":"quorumNumber","type":"uint8","internalType":"uint8"},{"name":"adversaryThresholdPercentage","type":"uint8","internalType":"uint8"},{"name":"confirmationThresholdPercentage","type":"uint8","internalType":"uint8"},{"name":"chunkLength","type":"uint32","internalType":"uint32"}]}]},{"name":"eigenDAServiceManager","type":"IEigenDAServiceManager","internalType":"contract IEigenDAServiceManager"},{"name":"blobVerificationProof","type":"tuple","internalType":"struct EigenDARollupUtils.BlobVerificationProof","components":[{"name":"batchId","type":"uint32","internalType":"uint32"},{"name":"blobIndex","type":"uint32","internalType":"uint32"},{"name":"batchMetadata","type":"tuple","internalType":"struct IEigenDAServiceManager.BatchMetadata","components":[{"name":"batchHeader","type":"tuple","internalType":"struct IEigenDAServiceManager.BatchHeader","components":[{"name":"blobHeadersRoot","type":"bytes32","internalType":"bytes32"},{"name":"quorumNumbers","type":"bytes","internalType":"bytes"},{"name":"signedStakeForQuorums","type":"bytes","internalType":"bytes"},{"name":"referenceBlockNumber","type":"uint32","internalType":"uint32"}]},{"name":"signatoryRecordHash","type":"bytes32","internalType":"bytes32"},{"name":"confirmationBlockNumber","type":"uint32","internalType":"uint32"}]},{"name":"inclusionProof","type":"bytes","internalType":"bytes"},{"name":"quorumIndices","type":"bytes","internalType":"bytes"}]}],"outputs":[],"stateMutability":"view"}],"bytecode":{"object":"0x6114c161003a600b82828239805160001a60731461002d57634e487b7160e01b600052600060045260246000fd5b30600052607381538281f3fe73000000000000000000000000000000000000000030146080604052600436106100405760003560e01c80638651838414610045578063ecad0b521461005a575b600080fd5b610058610053366004610cff565b610083565b005b61006d610068366004610d83565b61089c565b60405160ff909116815260200160405180910390f35b6001600160a01b03821663eccbbfc961009f6020840184610dc1565b6040516001600160e01b031960e084901b16815263ffffffff919091166004820152602401602060405180830381865afa1580156100e1573d6000803e3d6000fd5b505050506040513d601f19601f820116820180604052508101906101059190610de3565b6101236101156040840184610dfc565b61011e90610f50565b610994565b146101af5760405162461bcd60e51b815260206004820152604b60248201527f456967656e4441526f6c6c75705574696c732e766572696679426c6f623a206260448201527f617463684d6574616461746120646f6573206e6f74206d617463682073746f7260648201526a6564206d6574616461746160a81b608482015260a4015b60405180910390fd5b6102636101bf6060830183611021565b8080601f016020809104026020016040519081016040528093929190818152602001838380828437600092019190915250610201925050506040840184610dfc565b61020b908061106f565b3561021d61021887611096565b610a05565b60405160200161022f91815260200190565b604051602081830303815290604052805190602001208460200160208101906102589190610dc1565b63ffffffff16610a35565b6102d55760405162461bcd60e51b815260206004820152603960248201527f456967656e4441526f6c6c75705574696c732e766572696679426c6f623a206960448201527f6e636c7573696f6e2070726f6f6620697320696e76616c69640000000000000060648201526084016101a6565b6000805b6102e660608601866111dc565b9050811015610785576102fc60608601866111dc565b8281811061030c5761030c611226565b610322926020608090920201908101915061123c565b60ff166103326040850185610dfc565b61033c908061106f565b61034a906020810190611021565b6103576080870187611021565b8581811061036757610367611226565b919091013560f81c905081811061038057610380611226565b9050013560f81c60f81b60f81c60ff16146104035760405162461bcd60e51b815260206004820152603a60248201527f456967656e4441526f6c6c75705574696c732e766572696679426c6f623a207160448201527f756f72756d4e756d62657220646f6573206e6f74206d6174636800000000000060648201526084016101a6565b61041060608601866111dc565b8281811061042057610420611226565b9050608002016040016020810190610438919061123c565b60ff1661044860608701876111dc565b8381811061045857610458611226565b9050608002016020016020810190610470919061123c565b60ff16106104f75760405162461bcd60e51b815260206004820152604860248201527f456967656e4441526f6c6c75705574696c732e766572696679426c6f623a206160448201527f64766572736172795468726573686f6c6450657263656e74616765206973206e6064820152671bdd081d985b1a5960c21b608482015260a4016101a6565b60006105388561050a60608901896111dc565b8581811061051a5761051a611226565b610530926020608090920201908101915061123c565b60ff1661089c565b905060ff8116156106025760ff811661055460608801886111dc565b8481811061056457610564611226565b905060800201602001602081019061057c919061123c565b60ff1610156106025760405162461bcd60e51b815260206004820152604660248201527f456967656e4441526f6c6c75705574696c732e766572696679426c6f623a206160448201527f64766572736172795468726573686f6c6450657263656e74616765206973206e6064820152651bdd081b595d60d21b608482015260a4016101a6565b61060f60608701876111dc565b8381811061061f5761061f611226565b9050608002016040016020810190610637919061123c565b60ff166106476040860186610dfc565b610651908061106f565b61065f906040810190611021565b61066c6080880188611021565b8681811061067c5761067c611226565b919091013560f81c905081811061069557610695611226565b9050013560f81c60f81b60f81c60ff16101561072b5760405162461bcd60e51b815260206004820152604960248201527f456967656e4441526f6c6c75705574696c732e766572696679426c6f623a206360448201527f6f6e6669726d6174696f6e5468726573686f6c6450657263656e7461676520696064820152681cc81b9bdd081b595d60ba1b608482015260a4016101a6565b61076f8361073c60608901896111dc565b8581811061074c5761074c611226565b610762926020608090920201908101915061123c565b600160ff919091161b1790565b925050808061077d9061126d565b9150506102d9565b506107fe6107f7846001600160a01b031663e15234ff6040518163ffffffff1660e01b8152600401600060405180830381865afa1580156107ca573d6000803e3d6000fd5b505050506040513d6000823e601f3d908101601f191682016040526107f291908101906112aa565b610a4d565b8281161490565b6108965760405162461bcd60e51b815260206004820152605960248201527f456967656e4441526f6c6c75705574696c732e766572696679426c6f623a207260448201527f657175697265642071756f72756d7320617265206e6f7420612073756273657460648201527f206f662074686520636f6e6669726d65642071756f72756d7300000000000000608482015260a4016101a6565b50505050565b600081836001600160a01b0316638687feae6040518163ffffffff1660e01b8152600401600060405180830381865afa1580156108dd573d6000803e3d6000fd5b505050506040513d6000823e601f3d908101601f1916820160405261090591908101906112aa565b51111561098e57826001600160a01b0316638687feae6040518163ffffffff1660e01b8152600401600060405180830381865afa15801561094a573d6000803e3d6000fd5b505050506040513d6000823e601f3d908101601f1916820160405261097291908101906112aa565b828151811061098357610983611226565b016020015160f81c90505b92915050565b600061098e82600001516040516020016109ae919061134d565b60408051808303601f1901815282825280516020918201208682015187840151838601929092528484015260e01b6001600160e01b0319166060840152815160448185030181526064909301909152815191012090565b600081604051602001610a1891906113ad565b604051602081830303815290604052805190602001209050919050565b600083610a43868585610bdd565b1495945050505050565b600061010082511115610ad65760405162461bcd60e51b8152602060048201526044602482018190527f4269746d61705574696c732e6f72646572656442797465734172726179546f42908201527f69746d61703a206f7264657265644279746573417272617920697320746f6f206064820152636c6f6e6760e01b608482015260a4016101a6565b8151600003610ae757506000919050565b60008083600081518110610afd57610afd611226565b0160200151600160f89190911c81901b92505b8451811015610bd457848181518110610b2b57610b2b611226565b0160200151600160f89190911c1b9150828211610bc05760405162461bcd60e51b815260206004820152604760248201527f4269746d61705574696c732e6f72646572656442797465734172726179546f4260448201527f69746d61703a206f72646572656442797465734172726179206973206e6f74206064820152661bdc99195c995960ca1b608482015260a4016101a6565b91811791610bcd8161126d565b9050610b10565b50909392505050565b600060208451610bed9190611456565b15610c745760405162461bcd60e51b815260206004820152604b60248201527f4d65726b6c652e70726f63657373496e636c7573696f6e50726f6f664b65636360448201527f616b3a2070726f6f66206c656e6774682073686f756c642062652061206d756c60648201526a3a34b836329037b310199960a91b608482015260a4016101a6565b8260205b85518111610cda57610c8b600285611456565b600003610caf57816000528086015160205260406000209150600284049350610cc8565b8086015160005281602052604060002091506002840493505b610cd3602082611478565b9050610c78565b50949350505050565b80356001600160a01b0381168114610cfa57600080fd5b919050565b600080600060608486031215610d1457600080fd5b833567ffffffffffffffff80821115610d2c57600080fd5b9085019060808288031215610d4057600080fd5b819450610d4f60208701610ce3565b93506040860135915080821115610d6557600080fd5b50840160a08187031215610d7857600080fd5b809150509250925092565b60008060408385031215610d9657600080fd5b610d9f83610ce3565b946020939093013593505050565b803563ffffffff81168114610cfa57600080fd5b600060208284031215610dd357600080fd5b610ddc82610dad565b9392505050565b600060208284031215610df557600080fd5b5051919050565b60008235605e19833603018112610e1257600080fd5b9190910192915050565b634e487b7160e01b600052604160045260246000fd5b6040516060810167ffffffffffffffff81118282101715610e5557610e55610e1c565b60405290565b6040516080810167ffffffffffffffff81118282101715610e5557610e55610e1c565b6040805190810167ffffffffffffffff81118282101715610e5557610e55610e1c565b604051601f8201601f1916810167ffffffffffffffff81118282101715610eca57610eca610e1c565b604052919050565b600067ffffffffffffffff821115610eec57610eec610e1c565b50601f01601f191660200190565b600082601f830112610f0b57600080fd5b8135610f1e610f1982610ed2565b610ea1565b818152846020838601011115610f3357600080fd5b816020850160208301376000918101602001919091529392505050565b600060608236031215610f6257600080fd5b610f6a610e32565b823567ffffffffffffffff80821115610f8257600080fd5b818501915060808236031215610f9757600080fd5b610f9f610e5b565b82358152602083013582811115610fb557600080fd5b610fc136828601610efa565b602083015250604083013582811115610fd957600080fd5b610fe536828601610efa565b604083015250610ff760608401610dad565b6060820152835250506020838101359082015261101660408401610dad565b604082015292915050565b6000808335601e1984360301811261103857600080fd5b83018035915067ffffffffffffffff82111561105357600080fd5b60200191503681900382131561106857600080fd5b9250929050565b60008235607e19833603018112610e1257600080fd5b803560ff81168114610cfa57600080fd5b60008136036080808212156110aa57600080fd5b6110b2610e32565b6040808412156110c157600080fd5b6110c9610e7e565b935085358452602080870135818601528483526110e7828801610dad565b81840152606094508487013567ffffffffffffffff8082111561110957600080fd5b9088019036601f83011261111c57600080fd5b81358181111561112e5761112e610e1c565b61113c848260051b01610ea1565b818152848101925060079190911b83018401903682111561115c57600080fd5b928401925b818410156111c8578784360312156111795760008081fd5b611181610e5b565b61118a85611085565b8152611197868601611085565b868201526111a6878601611085565b878201526111b58a8601610dad565b818b015283529287019291840191611161565b948601949094525092979650505050505050565b6000808335601e198436030181126111f357600080fd5b83018035915067ffffffffffffffff82111561120e57600080fd5b6020019150600781901b360382131561106857600080fd5b634e487b7160e01b600052603260045260246000fd5b60006020828403121561124e57600080fd5b610ddc82611085565b634e487b7160e01b600052601160045260246000fd5b60006001820161127f5761127f611257565b5060010190565b60005b838110156112a1578181015183820152602001611289565b50506000910152565b6000602082840312156112bc57600080fd5b815167ffffffffffffffff8111156112d357600080fd5b8201601f810184136112e457600080fd5b80516112f2610f1982610ed2565b81815285602083850101111561130757600080fd5b611318826020830160208601611286565b95945050505050565b60008151808452611339816020860160208601611286565b601f01601f19169290920160200192915050565b6020815281516020820152600060208301516080604084015261137360a0840182611321565b90506040840151601f198483030160608501526113908282611321565b91505063ffffffff60608501511660808401528091505092915050565b6000602080835260a08301845180518386015282810151905060408181870152838701519150606063ffffffff80841682890152828901519350608080818a015285855180885260c08b0191508887019750600096505b80871015611447578751805160ff90811684528a82015181168b850152878201511687840152850151841685830152968801966001969096019590820190611404565b509a9950505050505050505050565b60008261147357634e487b7160e01b600052601260045260246000fd5b500690565b8082018082111561098e5761098e61125756fea264697066735822122092f85c0131f3bfba048e27fa2b071c6407f185ff9ad9d3c7366604e22df7943e64736f6c63430008140033","linkReferences":{}},"methodIdentifiers":{"getQuorumAdversaryThreshold(IEigenDAServiceManager,uint256)":"ecad0b52","verifyBlob(IEigenDAServiceManager.BlobHeader,IEigenDAServiceManager,EigenDARollupUtils.BlobVerificationProof)":"86518384"},"id":29}